:020000040800F2
:1000000000800120E16400083165000831650008C6
:100010003165000831650008316500080000000006
:100020000000000000000000000000003165000832
:1000300031650008000000003165000831650008E6
:100040003165000831650008316500083165000838
:100050003165000831650008316500083165000828
:100060003165000831650008316500083165000818
:100070003165000831650008316500083165000808
:1000800031650008316500083165000831650008F8
:1000900031650008316500083165000831650008E8
:1000A00031650008316500083165000831650008D8
:1000B00031650008316500083165000831650008C8
:1000C00031650008316500083165000831650008B8
:1000D00031650008316500083165000831650008A8
:1000E0003165000831650008316500083165000898
:1000F0003165000831650008316500083165000888
:100100003165000831650008316500083165000877
:100110003165000831650008316500083165000867
:100120003165000831650008316500083165000857
:100130003165000800000000000000003165000883
:100140003165000831650008316500083165000837
:100150003165000831650008316500083165000827
:100160003165000831650008316500083165000817
:1001700031650008316500083165000800000000A5
:1001800000000000316500080000000000000000D1
:100190003165000800000000000000003165000823
:1001A00000000000000000000000000031650008B1
:1001B00031650008316500083165000831650008C7
:0401C000316500089D
:1001C80010B5054C237833B9044B13B10448AFF389
:1001D80000800123237010BD5C0400200000000093
:1001E8000C68000808B5034B1BB103490348AFF37B
:1001F800008008BD00000000600400200C680008B2
:10020800A3F5803A704700BF174B002B08BF134B6C
:100218009D46FFF7F5FF00218B460F461348144A09
:10022800121A06F0B7F90E4B002B00D098470D4B69
:10023800002B00D098470020002104000D000D4835
:10024800002802D00C4806F065FA06F07FF9200075
:10025800290006F0E9F806F069F900BF0000080077
:100268000000000000000000000000005C04002006
:100278009C0400201D670008296700080000000092
:1002880030B4002282B00023CDE90023DDE9002349
:100298000BA5D5E900459D4208BF94420CD3DDE982
:1002A8000023501C43F10001CDE90001DDE90023E2
:1002B8009D4208BF9442F2D202B030BC704700BFE2
:1002C8003F548900000000003849394BD1F8882094
:1002D800384842F47002C1F888201A68002142F0B8
:1002E80001021A6099601A6822F0847222F480323E
:1002F8001A6058601A6882B022F480221A60D960A5
:10030800009101911A6842F480321A6003E0009A61
:10031800B2F5A06F09D01A6802F400320192009A6F
:1003280001320092019A002AF1D0214B1B6813F484
:10033800003318BF01230193019B012B05D01B4BF0
:100348004FF000629A6002B07047194B1A491A6C54
:100358001A4842F080521A640A6842F480420A60DD
:100368009A689A609A6842F400429A609A6842F4DD
:10037800A0529A6058601A6842F080721A601A682F
:100388009201FCD50E4A0A4940F2056010609A684D
:1003980022F003029A609A6842F002029A608B681F
:1003A80003F00C03082BFAD1C9E700BF00ED00E009
:1003B80000380240103000240070004019544007F3
:1003C800003C0240154A936803F00C03042B0BD041
:1003D800082B0BD0124B114A12499268C2F3031230
:1003E8008A5CD3400B6170470F4BF4E75068516843
:1003F80052684302C2F388124CBF0B4B084B01F002
:100408003F01B3FBF1F303FB02F3044A5268C2F362
:10041800014201325200B3FBF2F3DCE7003802403C
:100428000024F4000400002000127A00034B40F07E
:10043800BF6040F40030D860704700BF00ED00E0B6
:10044800C37803B3164B30B4D96844788278154D15
:100458000078C943C1F30221C1F10403DBB29C4017
:100468000F230B41E4B21340234329181B0100F06A
:100478001F0401224009DBB2A24081F8003345F88D
:10048800202030BC7047037806485A09203203F010
:100498001F03012101FA03F340F82230704700BF1F
:1004A80000ED00E000E100E021F06041024B21F0A6
:1004B8007F0108439860704700ED00E021B1054BCB
:1004C8001A69104318617047024A136923EA000049
:1004D8001061704700ED00E0044A136804280CBF5F
:1004E80043F0040323F004031360704710E000E0B6
:1004F80008B501214FF4807003F076FCBDE8084090
:1005080000214FF4807003F06FBC00BF42680B6994
:1005180070B422F040720E790D688C6822F48072F3
:1005280042EA06222A434260CE688568094A334374
:100538002A4023434C79134343EA440383600A7DEA
:10054800C36A013AD2B223F4700343EA025370BC7F
:10055800C3627047FDF7FFC000230122C0E90233E0
:100568000275036083800361704700BF0749084A2A
:1005780030B4D0E900354C682240D0E902402B4322
:1005880013432343034330BC4B60704700230140AF
:10059800E030FCFF0023C0E90033C0E902337047B4
:1005A800836819B143F001038360704723F00103A6
:1005B80083607047436823F4400323F400731943AE
:1005C8004160704741628262704700BF436823F010
:1005D8001F03194341607047054A536818B143F433
:1005E80000035360704723F400035360704700BF53
:1005F80000230140054A536818B143F4800353604F
:10060800704723F480035360704700BF0023014004
:10061800092970B41BD9A1F10A0404EB4404C56884
:100628000726A640A34025EA06042343062AC360FA
:1006380019D8013A436B02EB82021F24944001FA55
:1006480002F223EA04010A4370BC4263704704695A
:1006580001EB41060725B540B34024EA05042343CE
:10066800062A0361E5D90C2A0DD8073A036B02EB79
:1006780082021F24944001FA02F223EA04010A4389
:1006880070BC026370470D3AC46A02EB82021F25F0
:10069800954001FA02F324EA0502134370BCC362D1
:1006A800704700BF836843F080438360704700BF92
:1006B8008068C0F380507047836819B143F4806341
:1006C8008360704723F4806383607047836819B13F
:1006D80043F002038360704723F00203836070478E
:1006E8004368013923F4604343EA41334360704768
:1006F800436819B143F400634360704723F400630F
:1007080043607047C06C80B2704700BF014B1868E7
:10071800704700BF08230140836819B143F4807310
:100728008360704723F4807383607047836819B1CE
:1007380043F400738360704723F400738360704749
:10074800054A536818B143F400535360704723F4C3
:1007580000535360704700BF00230140092970B45B
:100768001DD9A1F10A0404EB4404C5680726A64074
:10077800A34025EA06042343C360846B931CC4F397
:1007880001529B1ADBB203EB83031F229A4024EA2F
:10079800020401FA03F32343836370BC70470469BE
:1007A80001EB41060725B540B34024EA050423437D
:1007B8000361E2E7836B013923F4401343EA0153F1
:1007C8008363704782B0002301930190019B194411
:1007D8000191019B1A6002B0704700BF836823F43F
:1007E8007023194381607047836823F440131943C9
:1007F80081607047836843F480038360704700BF5B
:10080800FFF756BF436819B143F4806343607047EC
:1008180023F4806343607047436819B143F48053FD
:100828004360704723F480534360704782B00023CD
:1008380001930190019B28330B440193019B186895
:1008480080B202B0704700BFC9B201238B40416833
:1008580012B10B434360704721EA030343607047BA
:100868000368194214BF012000207047C943016082
:10087800704700BF4268006810EA112007D00123C2
:10088800C9B203FA01F1114214BF1846002070479B
:100898006FEA11210160704708B50D4B98424FF07F
:1008A80001010AD04FF0806003F092FABDE80840D9
:1008B80000214FF0806003F08BBA4FF0007003F016
:1008C80087FABDE8084000214FF0007003F080BAB5
:1008D80000640040036823F002030360036843F0E8
:1008E800010303604368DB0707D44FF6FF7301E099
:1008F800013B02D04268D207FAD5436813F00103DE
:100908005AD070B48B790A88012B03680CBF43F066
:10091800800323F080030360CB79012B03680CBFAD
:1009280043F0400323F0400303600B7A012B036874
:100938000CBF43F0200323F0200303604B7A012B04
:1009480003680CBF43F0100323F0100303608B7A95
:10095800012B03680CBF43F0080323F0080303606E
:10096800CB7A012B03680CBF43F0040323F0040384
:100978000360CB788E780D794C791B0643EA867331
:1009880043EA054343EA0453013A1343C361036846
:1009980023F0010303604368D90707D54FF6FF73B7
:1009A80001E0013B02D04268D207FAD44068C04354
:1009B80000F0010070BC7047184670473C4A837AC3
:1009C800D2F8001241F00101F0B4C2F80012D2F8D6
:1009D8001C420121994024EA0104C2F81C42057B0B
:1009E800CC43002D49D1D2F80C62B0F806C0458836
:1009F8008788DB002640C2F80C6203F18043028836
:100A080003F5C84345EA0C4542EA0742C3F8405299
:100A1800C3F84422C37A264AF3B9D2F804322340F1
:100A2800C2F804320389FBB9214BD3F814221440CD
:100A3800C3F81442437B012B05D11D4AD2F81C325E
:100A48001943C2F81C121A4AD2F8003223F00103E3
:100A5800F0BCC2F800327047D2F804320B43C2F837
:100A680004320389002BDFD0012BE3D1104AD2F8DE
:100A780014320B43C2F81432DCE7012DCAD1D2F884
:100A88000C62B0F800C045888788DB000E43C2F8C6
:100A98000C6203F18043C28803F5C84345EA0C455C
:100AA80042EA0742C3F84052C3F84422B2E700BF03
:100AB800006400400023012140F20322018082806B
:100AC8004380C38003814381704700BF0D4BD3F837
:100AD800002242F00102C3F80022D3F8002222F4D7
:100AE8007C5222F00E02C3F80022D3F8002242EA18
:100AF8000020C3F80002D3F8002222F00102C3F854
:100B08000022704700640040036819B143F4803341
:100B18000360704723F48033036070470368A9B10A
:100B280043F080030360D0F8843143F48073C0F845
:100B38008431D0F8943143F48073C0F89431D0F8FC
:100B4800A43143F48073C0F8A431704723F08003C4
:100B58000360D0F8843123F48073C0F88431D0F86E
:100B6800943123F48073C0F89431D0F8A43123F47D
:100B78008073C0F8A43170478368F0B45C01024602
:100B880005D48368180143D50125284601E00025CE
:100B9800284602EB05132D01D3F8804104F0010427
:100BA800C3F880410C7A4CB34E684F7A44EAC604C5
:100BB800D3F880613C433443C3F880418C7A04F015
:100BC8000F048C72D3F8846126F00F06C3F8846191
:100BD800D3F884613443C3F884412A44D1F80B40E4
:100BE800C2F88841D1F80F10C2F88C11D3F88021CF
:100BF80042F00102C3F88021F0BC70470F684C7ABC
:100C0800D3F8806144EA47543443C3F88041D5E7B8
:100C18009368DB0002D502252846BAE70420EBE7F3
:100C280001291AD0022902D061B1022070478368D5
:100C38000E480F4A0340934207D9181AB0FA80F0B9
:100C48004009704780680B4B0340002BEDD00948E2
:100C5800181AB0FA80F0400970478068044A00EA20
:100C680002038243F1D10846704700BF0000031019
:100C78000003000803000004012903D002290BD057
:100C880029B17047836843F40043836070478368E1
:100C980043F0800383607047836843F400038360F4
:100CA800704700BF00EB011310B4D3F8B04104F053
:100CB80004041472CCBBD3F8B041640D1460D3F8AB
:100CC800B04104F002045472D3F8B44104F00F04A4
:100CD8009472D3F8B44100EB0113240AD474D3F806
:100CE800B841D472D3F8B841240A1473D3F8B84180
:100CF800240C5473D3F8B841240E9473D3F8BC4130
:100D0800D473D3F8BC41240A1474D3F8BC41240C1E
:100D18005474D3F8BC311B0E937459B9C3685DF889
:100D2800044B43F02003C3607047D3F8B041E40894
:100D38005460C4E703695DF8044B43F02003036182
:100D4800704700BF21B9C36843F02003C3607047F0
:100D5800036943F020030361704700BF19B9C068F5
:100D680000F003007047012906BF006900F0030086
:100D780000207047E9B9036823F0030343F0010337
:100D88000360436803F00303012B09D04FF6FF7299
:100D980001E0013A04D0436803F00303012BF8D1C2
:100DA800406800F00300A0F10100B0FA80F04009AB
:100DB8007047012903D0022917D000207047036823
:100DC80023F0030303604368990707D04FF6FF73C6
:100DD80001E0013B02D042689207FAD1436813F060
:100DE800030F0CBF012000207047036823F00303A2
:100DF80043F002030360436803F00303022B09D0A6
:100E08004FF6FF7201E0013A04D0436803F0030390
:100E1800022BF8D1406800F00300A0F10200B0FAFC
:100E280080F04009704700BF036823F0030343F0D4
:100E380002030360406800F00300A0F10200B0FA6A
:100E480080F04009704700BF036823F00203036085
:100E58004368990707D54FF6FF7301E0013B02D0BD
:100E680042689207FAD4406880F00200C0F340005C
:100E7800704700BF806900F0700070478069000EFD
:100E8800704700BF8069C0F307407047436912B1DB
:100E980019434161704723EA01014161704700BF6E
:100EA80011F4700F07D080690840C0F313000038B0
:100EB80018BF01207047CB0107D540680840C0F330
:100EC8001300003818BF012070470A0107D5806851
:100ED8000840C0F31300003818BF012070478B0189
:100EE8004CBFC06800690840C0F31300003818BF41
:100EF800012070470A4B994209D08A01C1F31303B4
:100F080001D5C36070474A0104D5036170470023C7
:100F1800836170470A014CBF83604360704700BF1C
:100F28007000F03043690B401CD0B1F5807F6ED063
:100F38001AD8202914D801391F2913D8DFE801F05D
:100F48004E48124412121240121212121212123A7F
:100F58001212121212121212121212121212123645
:100F6800402944D000207047B1F5004F4BD009D933
:100F7800B1F5803F3FD0B1F5003FF3D14068C0F3F1
:100F880000107047B1F5806F39D0B1F5006F06D108
:100F9800836913F0700F14BF012000207047B1F56A
:100FA800007FDFD18069C0F3400070470069C0F35B
:100FB800C0007047006910F0030018BF0120704797
:100FC800C068C0F300107047C068C0F3C000704725
:100FD800C06810F0030018BF01207047806800F057
:100FE800013020F08070003818BF01207047006978
:100FF800C0F3001070474068C0F3C00070478069B4
:10100800C0F3800070474068C0F380007047806973
:1010180000F00100704700BFB1F5007F28D02AD842
:10102800202920D8F1B101391F291BD8DFE801F0A8
:10103800331A1A361A1A1A391A1A1A1A1A1A1A1AB4
:101048001A1A1A1A1A1A1A1A1A1A1A1A1A1A1A30E2
:10105800B1F5806F0CD0B1F5006F2CD100220423BC
:1010680082614360704740291ED0B1F5807F23D14B
:10107800042343607047B1F5004FEFD0E8D9B1F5CC
:10108800803F14D0B1F5003F14D11023436070475E
:10109800082303617047094B836070470823C360C6
:1010A80070471023C36070471023036170470823FB
:1010B8004360704770477047704700BF01010100E7
:1010C800014B01229A60704700300240014B1860C2
:1010D800186870470030024041B10438054A00EBF7
:1010E800810150F8043F13608842FAD1014B186817
:1010F800704700BF00300240014B1868704700BFBE
:1011080000300240014B1871704700BF00300240A8
:10111800014B1879704700BF0030024008B5012123
:10112800102002F03DFEBDE808400021102002F02A
:1011380037BE00BF144B81881A6822F0380210B4F9
:101148001A601C68428814431C601C6824F0C004A0
:101158001C601C6822F018022143202A196007D15C
:101168001968C28821F44071196019680A431A6025
:10117800054B028819685DF8044B21F004011960D9
:1011880019680A431A60704700000650002303805C
:1011980043808380C3807047084B02681A624268A4
:1011A8005A6282689A62C268DA6202691A6342699C
:1011B8005A6382699A63C269DA637047000006500D
:1011C8000023C0E90033C0E90233C0E90433C0E9B1
:1011D80006337047044B02681A6442685A6482688E
:1011E8009A64C268DA647047000006500023C0E9B8
:1011F8000033C0E902337047024A136843F480435E
:101208001360704700000650054A136818B143F48C
:1012180000431360704723F400431360704700BF16
:1012280000000650014B9860704700BF0000065050
:10123800014BD868704700BF00000650F0B482B078
:10124800254C00230193236923F0010323612368BC
:1012580013F0080F074614BF112515254FF6FF7622
:1012680001E0012A08D06268019B01330193019BC8
:10127800B34202EA0502F4D1174B58682840012806
:1012880003D0002002B0F0BC70471A6922F00202B5
:101298001A611A6822F400421A601A680D684C68CC
:1012A80002F47F723A601A6C7A605A6CBA609A6C6F
:1012B800FA60DB6C8A683B61CB687D61BC610D6953
:1012C8004C69FA613B62D1E90623C7E90954C7E9C9
:1012D8000B2302B0F0BC7047000006500F4B0268A9
:1012E8001A6042691A6282695A62C2699A62026A1B
:1012F800DA62426A1A63826A5A63C26A9A63026B42
:10130800DA6342681A6482685A64C2689A64026935
:10131800DA641A6842F400421A6070470000065006
:1013280021B1064B1A69104318617047034A1369C3
:1013380023EA000000F0FF0010617047000006502B
:1013480021B1064B5A69104358617047034A5369E3
:1013580023EA000000F0FF005061704700000650CB
:10136800034BDB69184214BF01200020704700BFFF
:1013780000000650044B82064CBF9B695B6818420C
:1013880014BF012000207047000006502DE9F043EB
:101398008DB0164607464FF0000904A8DDF85080C6
:1013A800CDF804900D461C46FFF70AFFC02E00F04A
:1013B800A080B6F5807F00F0B380802E00F08A8090
:1013C80087BB02ADFFF718FF664B02932846ADF8BE
:1013D8000C70FFF7AFFE04A8FFF7DEFE0120FFF751
:1013E80013FF02E0002800F0B8801020FFF7C2FFCA
:1013F800019A01320192019AB2F5803FF2D1002898
:1014080000F0AB80202280232846ADF80A20ADF8F2
:101418000C30FFF78FFEFFF7EFFE0120FFF7F4FE19
:1014280000243CE004A8FFF7B7FE0023ADF808301D
:1014380002AD284620228023ADF80A20ADF80C30F2
:10144800FFF778FEFFF7D8FE0120FFF7DDFEB8F1C1
:10145800000F3DD06FF00F07159D3F1B002610347D
:1014680054F8100CFFF7DEFE54F80C0CFFF7DAFE08
:1014780054F8080CFFF7D6FE54F8040CFFF7D2FE18
:10148800019600E090B11020FFF774FF019B013333
:101498000193019BB3F5803FF4D138B100240020BB
:1014A800FFF7B2FE20460DB0BDE8F083FFF7C0FE9F
:1014B8002860FFF7BDFE6860FFF7BAFEA860FFF777
:1014C800B7FE10343B199845E86005F11005C7D8F8
:1014D8000124E4E72B68ADF80E901BBA08936B68FB
:1014E8001BBA0993AB681BBA0A93EB681BBA0B9338
:1014F80066E74FF48073ADF80E302B681BBA06937D
:101508006B681BBA0793AB681BBA0893EB681BBAE6
:1015180009932B691BBA0A936B691BBA0B934FE7A4
:101528004FF40073ADF80E302B681BBA04936B6848
:101538001BBA0593AB681BBA0693EB681BBA0793F3
:101548002B691BBA08936B691BBA0993AB691BBA61
:101558000A93EB691BBA0B9332E70423ADF8083002
:1015680067E700BF040038002DE9F04790B09A46BD
:1015780007464FF0000908A8DDE918480E46154649
:10158800CDF80490FFF71CFEBAF1C00F00F0D3802D
:10159800BAF5807F00F0B280BAF1800F00F09B802E
:1015A80033681BBA049373681BBA0593B3681BBAF4
:1015B8000693F3681BBA079397BB02ADFFF71CFEAF
:1015C800684B02932846ADF80C70FFF7B3FD08A8E6
:1015D800FFF7E2FD0120FFF717FE02E0002800F008
:1015E80089801020FFF7C6FE019B01330193019B00
:1015F800B3F5803FF2D100287CD0282280232846EA
:10160800ADF80A20ADF80C30FFF794FD04A8FFF7F9
:10161800E1FDFFF7F1FD0120FFF7F6FD00243FE0B3
:1016280008A8FFF7B9FD0023ADF8083002AD28225D
:1016380080232846ADF80A20ADF80C30FFF77AFD74
:1016480004A8FFF7C7FDFFF7D7FD0120FFF7DCFD72
:10165800B8F1000F3DD06FF00F071A9D3F1B002611
:10166800103454F8100CFFF7DDFD54F80C0CFFF79C
:10167800D9FD54F8080CFFF7D5FD54F8040CFFF712
:10168800D1FD019600E090B11020FFF773FE019B99
:1016980001330193019BB3F5803FF4D138B10024A5
:1016A8000020FFF7B1FD204610B0BDE8F087FFF736
:1016B800BFFD2860FFF7BCFD6860FFF7B9FDA860B3
:1016C800FFF7B6FD10343B199845E86005F11005A1
:1016D800C7D80124E4E72B68ADF80E901BBA0C9329
:1016E8006B681BBA0D93AB681BBA0E93EB681BBAF9
:1016F8000F9355E70423ADF8083098E74FF40073CB
:10170800ADF80E302B681BBA08936B681BBA0993A7
:10171800AB681BBA0A93EB681BBA0B932B691BBA0D
:101728000C936B691BBA0D93AB691BBA0E93EB69EB
:101738001BBA0F9334E74FF48073ADF80E302B6863
:101748001BBA0A936B681BBA0B93AB681BBA0C9352
:10175800EB681BBA0D932B691BBA0E936B691BBA06
:101768000F931DE7040038002DE9F04F91B09B4618
:1017780081464FF0000A08A8DDE91A481C9DCDF8FB
:1017880004A00F461646FFF71BFDBBF1C00F00F083
:101798009B80BBF5807F7AD0BBF1800F68D03B6817
:1017A8001BBA04937B681BBA0593BB681BBA0693E4
:1017B800FB681BBA08A80793FFF7EEFCB9F1000F06
:1017C8000CBF042100213022802302A8ADF80810A4
:1017D800ADF80A20ADF80C30FFF7ACFC04A8FFF711
:1017E800F9FCFFF709FD0120FFF70EFDB8F1000F26
:1017F8003CD06FF00F073F1B0026103454F8100C34
:10180800FFF710FD54F80C0CFFF70CFD54F8080C0A
:10181800FFF708FD54F8040CFFF704FD019600E0FB
:1018280090B11020FFF7A6FD019B01330193019BA6
:10183800B3F5803FF4D138B100240020FFF7E4FC71
:10184800204611B0BDE8F08FFFF7F2FC2860FFF7E3
:10185800EFFC6860FFF7ECFCA860FFF7E9FC1034C8
:101868003B199845E86005F11005C7D80124E4E75D
:101878003368ADF80EA01BBA0C9373681BBA0D93AE
:10188800B3681BBA0E93F3681BBA0F9387E74FF43C
:101898000073ADF80E3033681BBA089373681BBA2F
:1018A8000993B3681BBA0A93F3681BBA0B9333699D
:1018B8001BBA0C9373691BBA0D93B3691BBA0E93C9
:1018C800F3691BBA0F936AE74FF48073ADF80E30D3
:1018D80033681BBA0A9373681BBA0B93B3681BBAB5
:1018E8000C93F3681BBA0D9333691BBA0E93736993
:1018F8001BBA0F9353E700BF2DE9F0438DB0814623
:10190800002504A8884614461F46149E0195FFF733
:1019180057FCB9F1010F0CBF29460421102280237E
:1019280002A8ADF80C30ADF80810ADF80A20FFF7A2
:1019380001FCD8F800301BBA0693D8F804301BBA5B
:1019480004A80793FFF728FCFFF756FC0120FFF7D0
:101958005BFC7FB36FF00708A8EB0408083454F861
:10196800080CFFF75FFC54F8040CFFF75BFC0195CB
:1019780000E090B11020FFF7FDFC019A01320192BE
:10198800019BB3F5803FF4D138B100240020FFF764
:101998003BFC20460DB0BDE8F083FFF749FC306002
:1019A800FFF746FC083408EB0403BB42706006F1FD
:1019B8000806D4D30124E9E72DE9F04790B0824620
:1019C800002508A8894617461C46DDE918860195B2
:1019D800FFF7F6FBBAF1010F0CBF294604211822C4
:1019E800802302A8ADF80C30ADF80810ADF80A2035
:1019F800FFF7A0FBD9F800301BBA0A93D9F80430D6
:101A08001BBA08A80B93FFF7C7FB3B681BBA0493E4
:101A18007B681BBA04A80593FFF7DCFBFFF7ECFB18
:101A28000120FFF7F1FBB8F1000F2DD06FF0070789
:101A38003F1B083454F8080CFFF7F4FB54F8040C67
:101A4800FFF7F0FB019500E090B11020FFF792FC42
:101A5800019B01330193019BB3F5803FF4D138B169
:101A680000240020FFF7D0FB204610B0BDE8F08727
:101A7800FFF7DEFB3060FFF7DBFB08343B1943451B
:101A8800706006F10806D5D30124EAE72DE9F04392
:101A98008DB00025814604A8144688461F46149E2A
:101AA8000195FFF78DFBB9F1010F0CBF2A460422FF
:101AB800802302A8ADF80C30ADF80A50ADF8082024
:101AC800FFF738FBD8F800301BBA0693D8F8043073
:101AD8001BBA0793D8F808301BBA0893D8F80C300B
:101AE8001BBA0993D8F810301BBA0A93D8F81430E7
:101AF8001BBA04A80B93FFF74FFBFFF77DFB0120F0
:101B0800FFF782FB7FB36FF00708A8EB04080834DF
:101B180054F8080CFFF786FB54F8040CFFF782FB17
:101B2800019500E090B11020FFF724FC019A0132E2
:101B38000192019BB3F5803FF4D138B10024002015
:101B4800FFF762FB20460DB0BDE8F083FFF770FB9E
:101B58003060FFF76DFB083408EB0403BB4270608C
:101B680006F10806D4D30124E9E700BF2DE9F047C0
:101B780090B08246002508A80F4691461C46DDE92C
:101B880018860195FFF71CFBBAF1010F4FF0080208
:101B98000CBF2946042180230DEB0200ADF80C3060
:101BA800ADF80810ADF80A20FFF7C4FA3B681BBA75
:101BB8000A937B681BBA0B93BB681BBA0C93FB6830
:101BC8001BBA0D933B691BBA0E937B691BBA08A815
:101BD8000F93FFF7E1FAD9F800301BBA0493D9F84C
:101BE80004301BBA04A80593FFF7F4FAFFF704FBC7
:101BF8000120FFF709FBB8F1000F2DD06FF00707A0
:101C08003F1B083454F8080CFFF70CFB54F8040C7D
:101C1800FFF708FB019500E090B11020FFF7AAFB41
:101C2800019B01330193019BB3F5803FF4D138B197
:101C380000240020FFF7E8FA204610B0BDE8F0873E
:101C4800FFF7F6FA3060FFF7F3FA08343B1943451B
:101C5800706006F10806D5D30124EAE708B501212A
:101C68004FF0005002F0B4F8BDE8084000214FF0F2
:101C7800005002F0ADB800BF70B4D1E90036D1E928
:101C88000225084C33431A4340F6FE7123682A4361
:101C9800814023EA010302FA00F00343236070BC89
:101CA800704700BF007400400023C0E90033C0E95A
:101CB8000233704739B1084A0123116803FA00F06A
:101CC800084310607047044901220B6802FA00F0CB
:101CD80023EA0000086070470074004041B1094AD7
:101CE80000095168012303FA00F008435060704767
:101CF800044900094B68012202FA00F023EA0000B7
:101D08004860704700740040054A536818B143F0B2
:101D180003035360704723F003035360704700BF09
:101D2800007400402AB1064B1A68814011431960BB
:101D38007047034A1368814023EA01011160704724
:101D48000074004082B0064B002201920193019B6F
:101D5800083303440193019B196002B0704700BF28
:101D68000074004082B0064B002201920193019B4F
:101D7800143303440193019B196002B0704700BFFC
:101D8800007400400828044B0CBF42EA012142EAD3
:101D98000141C150704700BF2074004082B0074B1A
:101DA800002201920193019B2C3303EB90030193D2
:101DB800019B186880B202B0704700BF00740040F1
:101DC80041B1094A4FF48053116803FA00F00843FF
:101DD8001060704704494FF480520B6802FA00F013
:101DE80023EA00000860704700740040FFF79ABFBC
:101DF800044B5B6B01FA00F0184214BF012000206D
:101E0800704700BF00740040024B01FA00F05863AD
:101E1800704700BF00740040054B1A685B6B814037
:101E280011EA030003D00A4214BF012000207047C2
:101E380000740040024B01FA00F05863704700BF7D
:101E480000740040014B1868000C7047002004E043
:101E5800024B1868C0F30B00704700BF002004E075
:101E6800044A536811B118435060704723EA0000D0
:101E780050607047002004E0044A936811B1184389
:101E88009060704723EA000090607047002004E0EB
:101E9800044AD36811B11843D060704723EA0000A0
:101EA800D0607047002004E0054B00221F211A6013
:101EB800DA6059619A61DA611A625A62704700BF42
:101EC800000005500F4903880A6830B444888588A3
:101ED800234322F48042C4882B4322F0010205895F
:101EE8000A60234344890A6880892B4323430343B8
:101EF80022F47F629BB222F00202134330BC0B60D3
:101F0800704700BF00000550002303804380838092
:101F1800C380038143818381704700BF30B4428806
:101F280005888488C388044942EA054243EA044391
:101F38000A6230BC4B62704700000550054A1368BE
:101F480018B143F004031360704723F004031360CF
:101F5800704700BF00000550014B02689A61704746
:101F680000000550054A136818B143F008031360D0
:101F7800704723F008031360704700BF0000055046
:101F8800054A136818B143F480431360704723F47B
:101F980080431360704700BF00000550054A13686E
:101FA80018B143F001031360704723F00103136075
:101FB800704700BF00000550014B986A704700BF8A
:101FC80000000550054B19B1DA681043D860704716
:101FD800DA68C04380B21040D860704700000550EE
:101FE800030B012B09D0022B054B0CBF5B681B6947
:101FF800184214BF012000207047014B9B68F7E787
:1020080000000550014B5861704700BF00000550A3
:10201800034B1B69184214BF01200020704700BF02
:1020280000000550014B5861704700BF0000055083
:1020380002683649002310B422F0010221248842A4
:102048000260036043608360C3600361446138D009
:102058002F4B98422ED02F4B98423CD02E4B984273
:1020680040D02E4B984232D02D4B984241D02D4B28
:10207800984246D02C4B984217D02C4B98423CD0D3
:102088002B4B984216D02B4B984224D02A4B98427F
:1020980028D02A4B98421AD0294B984229D0294B4C
:1020A80098422ED0284B984208D14FF03D5243F821
:1020B800AC2C03E04FF4746243F8202C5DF8044B19
:1020C8007047224B5DF8044B3D229A607047204AC6
:1020D80043F8642CF2E74FF474125DF8044B43F8AC
:1020E800382C70474FF074625DF8044B43F8502C5D
:1020F8007047184A43F87C2CE0E73D2243F8082C47
:10210800DCE7154A43F8942CD8E700BF106002407A
:1021180028600240406002405860024070600240FF
:1021280088600240A0600240B8600240106402402B
:1021380028640240406402405864024070640240CF
:1021480088640240A0640240B86402400060024013
:102158003D000020400F002000003D200B6870B4B7
:10216800D1E90524CD682B431343D1E9072523433F
:102178001343D1E909422B43D1E90D6523431343A6
:1021880004680B4A334322402B4313430360D1E9CD
:102198000B3442690D6922F0070223431343D1E946
:1021A800014243614560846070BCC260704700BFF3
:1021B8003F801CF00023C0E90033C0E90233C0E9C6
:1021C8000433C0E90633C0E90833C0E90A33C0E97B
:1021D8000C338363704700BF036819B143F00103F0
:1021E8000360704723F0010303607047036819B167
:1021F80043F400430360704723F4004303607047CF
:10220800036819B143F020030360704723F02003EB
:102218000360704741607047406880B2704700BFF4
:10222800036822B143F4002303600161704723F47B
:102238000023036001617047036819B143F48023E8
:102248000360704723F48023036070470AB101617B
:102258007047C160704700BF0068C0F3C040704756
:10226800006800F001007047406900F038007047CE
:102278000B4B0C4A10B40C4CA04294BF18461046A5
:102288008B004CBF436803685DF8044B194021F08C
:10229800F02020F08210003818BF0120704700BFDE
:1022A80000600240006402400F64024010B4094B11
:1022B800094C0A4AA04294BF1846104611F0005F24
:1022C80021F0F02121F082115DF8044B14BFC160A8
:1022D80081607047006002400F6402400064024061
:1022E8000B060CD54369AAB143F0800380294361EA
:1022F8000FD0036801F01E0119430160704780295F
:1023080007D0002AF5D1036801F01E0123EA010174
:102318000160704723F0800380294361F3D170473F
:1023280030B4114B114D124C21F0F02222F0C3129F
:10233800A84288BF23469AB1006800EAD12000F07D
:102348001E0288004CBF58681868084020F0F0202A
:1023580020F0821010B1101E18BF012030BC704749
:10236800426902F08002ECE7006002400F6402401C
:1023780000640240FFF79ABF044B054900221A6027
:102388005A609A60DA605961704700BF003C0140AA
:10239800FFFF7F00837943B31E4B01681A6822EA66
:1023A800010210B41A605A6822EA01025A600279DE
:1023B80002F1804202F59E32146821431160996847
:1023C800026821EA02019960D96821EA0201D9600C
:1023D8004179102914D001F1804303F59E335DF84B
:1023E800044B19680A431A6070470379016803F1BE
:1023F800804303F59E331A6822EA01021A60704787
:1024080099685DF8044B11439960D9680A43DA600A
:10241800704700BF003C014000234FF440628280B7
:1024280003608371704700BF024A13691843106143
:10243800704700BF003C0140034B5B69034214BF77
:1024480001200020704700BF003C0140014B58614B
:10245800704700BF003C0140054B1A685B690340A8
:1024680004D0024214BF012000207047184670476C
:10247800003C0140014B5861704700BF003C0140DF
:10248800014BC0B218707047003C0240054A1368FF
:1024980018B143F480731360704723F4807313609A
:1024A800704700BF003C0240054A136818B143F466
:1024B80000731360704723F400731360704700BF04
:1024C800003C0240054A136818B143F48063136066
:1024D800704723F480631360704700BF003C0240DC
:1024E800024A136843F4006313607047003C0240DB
:1024F800024A136843F4805313607047003C02405B
:10250800044B1A69002A03DA0349044A59605A60DD
:10251800704700BF003C024023016745AB89EFCDFF
:10252800024A136943F0004313617047003C0240BC
:10253800044B5A69D20703D50349044A99609A6043
:10254800704700BF003C02403B2A19087F6E5D4C73
:10255800024A536943F0010353617047003C02404B
:10256800044B1A7802F0F3021A701A7810431870A4
:10257800704700BF143C0240024B5869C0F3471033
:10258800704700BF003C0240014B188880B270477A
:10259800163C0240024B1878AA3818BF0120704731
:1025A800153C0240024B187800F00C00704700BF41
:1025B800143C0240044A136911B118431061704772
:1025C80023EA000010617047003C0240034BDB68BF
:1025D800034214BF01200020704700BF003C0240A6
:1025E800014BD860704700BF003C02400B4BDA68D3
:1025F800D1030DD4DA68D2060CD4DA6812F0EF0FE2
:102608000AD1DB6813F0020F14BF072008207047B7
:10261800012070470520704706207047003C0240A3
:1026280000B583B008238DF80730FFF7DFFF8DF87A
:1026380007009DF80730012BF7D09DF8070003B07D
:102648005DF804FB70B5054661B101292FD0022958
:102658000CBF4FF400744FF44074FFF7E1FF0828F3
:1026680005D070BD0C46FFF7DBFF0828F9D1114EE5
:10267800336923F44073336131692143316133692C
:1026880023F0F80333613069284340F002003061D9
:10269800336943F480333361FFF7C2FF336923F0B2
:1026A80002033361336923F0F803336170BD4FF4DB
:1026B8008074D8E7003C024038B50446FFF7B0FF05
:1026C8003CB1012C1FD0022C0CBF4FF400744FF406
:1026D8004074082800D038BD0D4D2B6923F4407391
:1026E8002B612B691C432C612B6943F004032B617C
:1026F8002B6943F480332B61FFF792FF2B6923F09A
:1027080004032B6138BD08284FF48074E3D1E3E754
:10271800003C0240F8B5144606461D46FFF780FF08
:10272800082800D0F8BD0B4F3B6923F440733B6188
:102738003B6943F440733B613B6943F001033B61F0
:10274800C6E90045FFF76CFF3B6923F001033B61D5
:10275800F8BD00BF003C024070B505460C46FFF7C7
:102768005FFF082800D070BD0A4E336923F4407318
:102778003361336943F400733361336943F0010310
:1027880033612C60FFF74CFF336923F00103336199
:1027980070BD00BF003C024070B505460C46FFF70F
:1027A8003FFF082800D070BD0A4E336923F44073F8
:1027B8003361336943F480733361336943F0010350
:1027C80033612C80FFF72CFF336923F00103336159
:1027D80070BD00BF003C024070B505460C46FFF7CF
:1027E8001FFF082800D070BD094E336923F44073D9
:1027F800336133693361336943F0010333612C700A
:10280800FFF70EFF336923F00103336170BD00BF8A
:10281800003C024038B505460C46FFF701FF082882
:1028280000D038BD054A138824B19BB223EA0503BA
:10283800138038BD2B439BB2138038BD163C024031
:1028480010B50446FFF7ECFE082804BF014B1C70C6
:1028580010BD00BF153C024070B506460D46144633
:10286800FFF7DEFE082800D070BD054B1A7802F08D
:102878000F0246EA020044EA00022A431A7070BDB9
:10288800143C0240034A137843F002031370FFF725
:10289800C7BE00BF143C02404FF0204358B943F272
:1028A800DB021A60800000F120406FF07043436043
:1028B800C0F80431704743F2D20243F82020F1E710
:1028C800D0E9013270B4D0E9035413432B43416972
:1028D8002343D0E906450B432343D0E908412B4362
:1028E8002343856A04680B43C16A2B43A400056B24
:1028F8000B4304F120442B43082A236003D12368A7
:1029080043F040032360426B9569136856682B4374
:10291800956843EA061343EA0523D668D2E90452C8
:1029280043EA064343EA055343EA0263B1F5804F9D
:10293800636005D06FF07043C4F8043170BC704711
:10294800826BD2E90110956913682B4343EA01139E
:10295800D2E9041243EA002343EA015343EA02633B
:10296800C4F8043170BC704730B4D0E90D4102237B
:102978004FF480524FF40055436042628562002351
:102988000F22FF25C0E90233C0E90433C0E906334A
:10299800C0E90B3303600362C4E90022C4E90322DF
:1029A800A3616261A560C1E90252C1E9002230BC9D
:1029B800C1E904228B617047800000F1204021B1F9
:1029C800036843F00103036070470268014B13403A
:1029D80003607047FEFF0F0010280CBF054B064B25
:1029E8004FF0FC3218204021186059609A60DA6074
:1029F800704700BF600000A0800000A0D0E901324D
:102A0800F0B58669C5680769D0E907C4134343EA86
:102A180046332B43A268DCF808106568DCF80460CC
:102A2800DCF800E03B4347690068120443EA4723A7
:102A38002768090442EA0525E26841EA06261028C3
:102A4800DCF80C1045EA070545EA026546EA0E0679
:102A58000CBF054A054A43F0080346EA01661360BD
:102A68009660D560F0BD00BF600000A0800000A0A7
:102A780010B4D0E90741102303600022FC23C0E909
:102A88000122C0E90322C0E90522C4E90033C4E9F0
:102A98000233C1E90033C1E902335DF8044B7047E2
:102AA80041B110280CBF084A084A136843F00403D0
:102AB8001360704710280CBF034A044A044B11687E
:102AC8000B401360704700BF600000A0800000A0AA
:102AD800FBFF0F0041B110280CBF084A084A1368D1
:102AE80043F040031360704710280CBF034A044AA0
:102AF800044B11680B401360704700BF600000A0D2
:102B0800800000A0BFFF0F0010280CBF014B024B34
:102B180058697047600000A0800000A0054B4FF086
:102B2800FC3218200021186059609A60DA601A6136
:102B3800704700BFA00000A070B4D0E9015304683A
:102B4800164AC1685B0343EA4523234343F0100355
:102B58001360D1E901530C68C9681B0443EA0523D3
:102B6800234343EA016301699360D1E901630D6876
:102B7800CC6841691B0443EA06232B4343EA0463F8
:102B8800D360D1E901430868C9681B0443EA0423F8
:102B9800034343EA016370BC13617047A00000A0BF
:102BA80030B4D0E903414269FC230025C0E901554E
:102BB8000560C4E90033C4E90233C1E90033C1E95F
:102BC800023330BCC2E90033C2E90233704700BFA8
:102BD800054A20B1136843F0040313607047116875
:102BE800024B0B4013607047A00000A0FBFF0F00D2
:102BF80052B110281AD0B0F5807F0CBF0E4A0F4A88
:102C08005368194351607047102809D0B0F5807F88
:102C18000CBF094A094A536823EA01015160704709
:102C2800074A536823EA010151607047044A536810
:102C380019435160704700BF800000A0A00000A0A9
:102C4800600000A010280AD0B0F5807F0CBF054BAB
:102C5800054B5B680B4214BF012000207047034BF3
:102C68005B68F7E7800000A0A00000A0600000A05B
:102C7800102809D0B0F5807F0CBF064A064A536871
:102C880023EA010151607047044A536823EA0101AD
:102C980051607047800000A0A00000A0600000A064
:102CA80010280ED0B0F5807F0CBF074B074B5B6830
:102CB80013EA010004D013EAD10314BF0120002055
:102CC8007047034B5B68F3E7800000A0A00000A0FA
:102CD800600000A0102809D0B0F5807F0CBF064A1C
:102CE800064A536823EAD10151607047044A536881
:102CF80023EAD10151607047800000A0A00000A025
:102D0800600000A008B53C4B984222D03B4B98424B
:102D180029D03B4B984230D03A4B98420FD03A4B8F
:102D2800984234D0394B98423BD0394B984242D0E4
:102D3800384B984255D0384B984246D008BD0121AF
:102D4800082001F021F8BDE808400021082001F022
:102D58001BB80121084601F017F8BDE8084000211A
:102D6800012001F011B80121022001F00DF8BDE8A1
:102D780008400021022001F007B80121042001F0D9
:102D880003F8BDE808400021042000F0FDBF012140
:102D9800102000F0F9FFBDE808400021102000F0E5
:102DA800F3BF0121202000F0EFFFBDE8084000211B
:102DB800202000F0E9BF0121402000F0E5FFBDE838
:102DC80008400021402000F0DFBF01214FF480704F
:102DD80000F0DAFFBDE8084000214FF4807000F0F1
:102DE800D3BF0121802000F0CFFFBDE808400021BB
:102DF800802000F0C9BF00BF00000240000402406C
:102E080000080240000C024000100240001402407A
:102E180000180240001C0240002002402DE9F04743
:102E280000230F6801264FF0030C02E00133102B3A
:102E380041D006FA03F232EA0704F7D1D0F800E0ED
:102E48005C000CFA04F52EEA050EC0F800E091F8D3
:102E58000490D0F800A009FA04FE09F1FF394EEAFF
:102E68000A0EB9F1010FA846C0F800E06FEA05059F
:102E780015D8D0F808E005EA0E0585604D79D0F838
:102E880008E0A54045EA0E058560456825EA020286
:102E980042608A7945689A4092B22A434260C26881
:102EA80022EA0802C260CA79C568A24001332A43EF
:102EB800102BC260BDD1BDE8F08700BF4FF6FF728E
:102EC8000023C0E90023704782B04FF48033019398
:102ED800019B0B430193019BC361C161019BC361CA
:102EE800C3690193C369019302B07047036919422A
:102EF80014BF012000207047006980B2704700BFEE
:102F08004369194214BF012000207047406980B20C
:102F1800704700BF01837047418370470AB101833E
:102F280070474183704700BF41617047436959400A
:102F380041617047CB0800EB830001F0070110B432
:102F4800036A89000F248C4023EA04030362036A9E
:102F58005DF8044B8A401A430262704708B50121A4
:102F6800202000F01DFFBDE808400021202000F0CF
:102F780017BF00BF0F4A136823F0F00330B4136083
:102F880003688568146841682B4323430B43402931
:102F9800136007D1136823F480331360C168136882
:102FA8000B431360034A136843F0040330BC1360F7
:102FB800704700BF000406500023C0E90033C0E991
:102FC80002337047024A136843F0040313607047E2
:102FD80000040650044B9A6822F01F029A609A680F
:102FE80010439860704700BF00040650014B5860BA
:102FF800704700BF00040650024B1868C0F3032056
:10300800704700BF00040650054BDA6802601A6971
:1030180042605A6982609A69C260DB6903617047DD
:1030280000040650024A936843F480739360704723
:103038000004065009490B6A03608B6843600B68FB
:1030480040F8083F002303F13E02013351F82220E3
:1030580040F8042F332BF6D1704700BF0004065008
:103068000D4B026810B41A6242689A6050F8082F33
:103078001A601A6842F004021C461A60002303F121
:103088003E02013350F8041F44F82210332BF6D1C6
:103098005DF8044B704700BF00040650054A1368EA
:1030A80018B143F008031360704723F00803136056
:1030B800704700BF0004065021B1064B1A6A10433E
:1030C80018627047034A136A23EA000000F0FF0001
:1030D8001062704700040650044BC2044CBF1B68C2
:1030E8005B6A184214BF0120002070470004065094
:1030F800014BC0435862704700040650044A516AA5
:10310800136A0B40034214BF01200020704700BF20
:1031180000040650024BC043C0B25862704700BF5B
:1031280000040650F0B501F003038DB0DB00002465
:103138000F46ADF80640054616460294ADF806302F
:10314800FFF70CFF8022202303A8CDE90324059371
:10315800FFF710FFBDF8060080B2FFF73BFF37B15D
:1031680055F8040B0434FFF741FFA742F8D8FFF7DE
:1031780059FF00E068B10820FFF7AEFF029B01335A
:103188000293029BB3F5803FF4D110B100200DB03B
:10319800F0BD07A8FFF738FF079B1BBA3360089BF1
:1031A8001BBA7360099B1BBAB3600A9B1BBA012048
:1031B800F3600DB0F0BD00BF2DE9F0430D468DB0B2
:1031C80003F003011F4605F003030024DB00C900D8
:1031D800ADF804408146ADF8064016460294ADF8B5
:1031E8000410ADF80630FFF7B9FE802340220393A0
:1031F80095424FF02003CDE90423C84624D803A8FC
:103208000694FFF7B7FEBDF8060080B2FFF7E2FEAE
:103218003DB1002459F8040B0434FFF7E7FEA5423A
:10322800F8D8FFF7FFFE00E0D0B10820FFF754FF01
:10323800029C01340294029BB3F5803FF4D178B12B
:1032480000200DB0BDE8F0834FF4803303A8069347
:10325800FFF790FEBDF8060080B2FFF7BBFED8E787
:10326800BDF8040080B2FFF7B5FE3FB1002456F860
:10327800040B0434FFF7BAFEA742F8D8FFF7D2FED2
:103288000023029300E058B10820FFF725FF029BB6
:1032980001330293029BB3F5803FF4D10028CFD1CC
:1032A800BDF8060080B2FFF795FE3DB1002458F83E
:1032B800040B0434FFF79AFEA542F8D8FFF7B2FED4
:1032C8000023029300E058B10820FFF705FF029B96
:1032D80001330293029BB3F5803FF4D10028AFD1AC
:1032E80007A8FFF791FE079B1BBA149A1360089B67
:1032F8001BBA5360099B1BBA93600A9B1BBA012037
:10330800D3609EE7F0B501F003038DB0DB00002425
:103318000F46ADF80640054616460294ADF806304D
:10332800FFF71CFE202303A8CDE903440593FFF70C
:1033380021FEBDF8060080B2FFF74CFE37B155F804
:10334800040B0434FFF752FEA742F8D8FFF76AFED1
:1033580000E068B10820FFF7BFFE029B013302932B
:10336800029BB3F5803FF4D110B100200DB0F0BD41
:1033780007A8FFF749FE079B1BBA3360089B1BBAD7
:103388007360099B1BBAB3600A9B1BBAF3600B9B63
:103398001BBA012033610DB0F0BD00BF2DE9F04329
:1033A8000D468DB003F003011F4605F0030300240A
:1033B800DB00C900ADF804408146ADF8064016466A
:1033C8000294ADF80410ADF80630FFF7C7FD4022AF
:1033D80020239542CDE904230394C84624D803A8A2
:1033E8000694FFF7C7FDBDF8060080B2FFF7F2FDAF
:1033F8003DB1002459F8040B0434FFF7F7FDA5424A
:10340800F8D8FFF70FFE00E0D0B10820FFF764FE00
:10341800029C01340294029BB3F5803FF4D178B149
:1034280000200DB0BDE8F0834FF4803303A8069365
:10343800FFF7A0FDBDF8060080B2FFF7CBFDD8E787
:10344800BDF8040080B2FFF7C5FD3FB1002456F86F
:10345800040B0434FFF7CAFDA742F8D8FFF7E2FDD2
:103468000023029300E058B10820FFF735FE029BC5
:1034780001330293029BB3F5803FF4D10028CFD1EA
:10348800BDF8060080B2FFF7A5FD3DB1002458F84D
:10349800040B0434FFF7AAFDA542F8D8FFF7C2FDD4
:1034A8000023029300E058B10820FFF715FE029BA5
:1034B80001330293029BB3F5803FF4D10028AFD1CA
:1034C80007A8FFF7A1FD079B1BBA149A1360089B76
:1034D8001BBA5360099B1BBA93600A9B1BBAD36043
:1034E8000B9B1BBA012013619BE700BF08B5174B64
:1034F800984206D0164B98420FD0164B984218D0D7
:1035080008BD01214FF4001000F062FCBDE808403E
:1035180000214FF4001000F05BBC01214FF4800043
:1035280000F056FCBDE8084000214FF4800000F090
:103538004FBC01214FF4000000F04AFCBDE80840F0
:1035480000214FF4000000F043BC00BF00540040CD
:1035580000580040005C0040F0B58588334F85B0C6
:10356800044668460E4625F03F0500F05FFB0298CA
:103578002F4A33682D04A2FB00122D0C45EA924510
:10358800A580218821F001010904090CBB42218092
:103598004FEA924124D80A465B00B0FBF3F39BB292
:1035A8000132042B38BF04232284A3832188B088E6
:1035B8007789B289358989B241F001012180238850
:1035C80023F4816323F002031B0440EA07011B0C68
:1035D8000B432A439BB292B22380228105B0F0BDEF
:1035E800F5884BF6FF7295421AD003EB830303EB81
:1035F8008303B0FBF3F39BB243F48043C3F30B02A2
:103608000AB943F001030B484FF4967202FB01F22A
:10361800A0FB02129209013243F400432284C4E75A
:1036280003EB4303B0FBF3F39BB2E7E7A08601008B
:1036380083DE1B43D34D621041F288330449036093
:1036480000224FF48043C0E901128381704700BF14
:103658000000FFBF038821B19BB243F00103038040
:10366800704723F001031B041B0C0380704700BF45
:10367800038821B19BB243F480730380704723F41D
:1036880080731B041B0C0380704700BF038821B1A3
:103698009BB243F400730380704723F400731B0448
:1036A8001B0C0380704700BF22B141F0010189B2B1
:1036B8000182704701F0FE0189B20182704700BFA4
:1036C800038821B19BB243F480630380704723F4DD
:1036D80080631B041B0C0380704700BF83899BB267
:1036E80001F0FE0123F0FE0319438181704700BFFA
:1036F800838921B19BB243F001038381704723F092
:1037080001031B041B0C8381704700BF038821B190
:103718009BB243F040030380704723F040031B042F
:103728001B0C0380704700BF038831B16FEA434325
:103738006FEA53439BB203807047C3F30E030380C1
:10374800704700BF038821B99BB243F08003038010
:10375800704723F080031B041B0C0380704700BFD5
:10376800B1F5804F838B05D023F480431B041B0CD9
:10377800838370479BB243F480438383704700BFC1
:10378800B1F5006F038805D023F400631B041B0CFC
:10379800038070479BB243F400630380704700BF07
:1037A800B1F5005F038805D023F400531B041B0CFC
:1037B800038070479BB243F400530380704700BFF7
:1037C800038821B19BB243F010030380704723F0B4
:1037D80010031B041B0C0380704700BF0182704755
:1037E800008AC0B2704700BF038821B19BB243F47E
:1037F80080530380704723F480531B041B0C038001
:10380800704700BFFFF7BCBF038821B19BB243F0EC
:1038180020030380704723F020031B041B0C038044
:10382800704700BF008BC0F307207047838821B121
:103838009BB243F400638380704723F400631B0446
:103848001B0C8380704700BF838821B19BB243F46F
:1038580080538380704723F480531B041B0C8380A0
:10386800704700BF82B0002301930190019B194467
:103878000191019B188880B202B0704783889BB27F
:1038880012B119438180704723EA01018180704792
:10389800838A008B9BB243EA00430B4023F07F43AB
:1038A800581AB0FA80F04009704700BF838A028B2B
:1038B80098B240EA024020F07F40704782B000236F
:1038C8000A0F0093019301900092009B21F07F4121
:1038D80053B1019B14330193019B1B680B4214BF26
:1038E8000120002002B07047019B1833090C019396
:1038F800F2E700BFC94389B2818270478388808A12
:1039080080B208409BB206D003EA114313F4E06F7B
:1039180014BF012000207047C94389B281827047D3
:10392800014B1860704700BF00300040014B5860E1
:10393800704700BF00300040014B9860704700BFDF
:1039480000300040024B4AF6AA221A60704700BFB6
:1039580000300040024B4CF6CC421A60704700BF62
:1039680000300040034BDB68184214BF01200020E0
:10397800704700BF0030004008B501214FF080506B
:1039880000F026FABDE8084000214FF0805000F012
:103998001FBA00BF014B1860704700BF20000E42DD
:1039A800034A136823F0E00303431360704700BF22
:1039B80000700040014B1860704700BF10000E42B5
:1039C800014B1860704700BFA0000E42014B186001
:1039D800704700BFA4000E42054A136818B923F4C3
:1039E80080431360704743F480431360704700BFFF
:1039F80000700040014B1860704700BF24000E4261
:103A080010B40C4C0C4A236823F0030303432360CF
:103A18001369012943F00403136108D020BF064A43
:103A28005DF8044B136923F004031361704730BF3A
:103A3800F5E700BF0070004000ED00E0074B0849C3
:103A48001A6842F004021A601A6842F002021A6008
:103A58000B6943F004030B6130BF704700700040EE
:103A680000ED00E0034B5B68034214BF0120002017
:103A7800704700BF00700040024A136843EA8000A4
:103A880010607047007000400A4B0B481A6800210C
:103A980042F001021A6099601A6822F0847222F4D6
:103AA80080321A6058601A6822F480221A60D9603D
:103AB800704700BF0038024010300024024B00223B
:103AC8001A701870704700BF0238024082B0002395
:103AD8000949019300E04AB90A68019B013301933F
:103AE800019BB3F5A06F02F40032F4D1024B1868C1
:103AF800C0F3404002B0704700380240034A1368E0
:103B080023F0F80343EAC00313607047003802400B
:103B1800014B1860704700BF00004742064B002267
:103B280001281A701A7005D0042802D105221A70CB
:103B3800704770471870704770380240014B186022
:103B4800704700BF800E474230B4029D064C40EAE1
:103B580005605B080843013B40EA821040EA0340E5
:103B6800606030BC704700BF00380240014B1860ED
:103B7800704700BF60004742034B090741EA8010C5
:103B8800C3F88400704700BF00380240014B18603A
:103B9800704700BF68004742014B1860704700BF7C
:103BA8004C004742034A936823F0EC6319430143EE
:103BB8009160704700380240034A936823F07843C5
:103BC800194301439160704700380240034A9368E3
:103BD80023F0030303439360704700BF003802409B
:103BE800024B986800F00C00704700BF0038024094
:103BF800034A936823F0F00303439360704700BFC0
:103C080000380240034A936823F4E0530343936067
:103C1800704700BF00380240034A936823F46043AA
:103C280043EAC00393607047003802401F4A936814
:103C380003F00C03042B10B41BD0082B1CD01C4B16
:103C480003601A4A1B499468C4F303140C5DE340EB
:103C580043609468C4F382240C5D23FA04F48460FE
:103C680092685DF8044BC2F342328A5CD340C36069
:103C78007047114B0360E4E7546851685268630267
:103C8800C2F388124CBF0C4B094B01F03F01B3FB48
:103C9800F1F303FB02F3054A5268C2F30142013211
:103CA8005200B3FBF2F30360CBE700BF00380240D9
:103CB8000024F4001800002000127A0000F4407379
:103CC800B3F5407F09D108498A6820F0704322F48F
:103CD800F81223F4407313438B60034B1A6FC0F33D
:103CE8000B0010431867704700380240014B1860FA
:103CF800704700BF3C0E4742014B1860704700BF39
:103D0800400E4742014B1860704700BF5C014742B4
:103D1800044A136B11B118431063704723EA00007B
:103D28001063704700380240044A536B11B11843BE
:103D38005063704723EA0000506370470038024020
:103D4800044A936B11B118439063704723EA00004B
:103D58009063704700380240044A136C11B118434D
:103D68001064704723EA000010647047003802406E
:103D7800044A536C11B118435064704723EA000099
:103D88005064704700380240044A136911B118435F
:103D98001061704723EA0000106170470038024044
:103DA800044A536911B118435061704723EA00006F
:103DB8005061704700380240044A936911B11843B2
:103DC8009061704723EA0000906170470038024014
:103DD800044A136A11B118431062704723EA0000BD
:103DE8001062704700380240044A536A11B1184300
:103DF8005062704723EA0000506270470038024062
:103E0800044A136D11B118431065704723EA000086
:103E18001065704700380240044A536D11B11843C9
:103E28005065704723EA000050657047003802402B
:103E3800044A936D11B118439065704723EA000056
:103E48009065704700380240044A136E11B1184358
:103E58001066704723EA0000106670470038024079
:103E6800044A536E11B118435066704723EA0000A4
:103E78005066704700380240044A137811B118435D
:103E88001070704723EA0000107070470D38024028
:103E98004309012B0BD0022B094B0CBF1B6F5B6F27
:103EA80000F01F0023FA00F000F001007047044BF7
:103EB8001B6800F01F0023FA00F000F001007047B3
:103EC80000380240024A536F43F0807353677047CB
:103ED80000380240034BDB68184214BF0120002061
:103EE800704700BF00380240014B1870704700BF90
:103EF8000E38024008B501214020FFF751FFBDE808
:103F0800084000214020FFF74BBF00BF054A136857
:103F180018B143F004031360704723F004031360DF
:103F2800704700BF00080650014B9868704700BFF3
:103F380000080650054A136818B143F008031360D7
:103F4800704723F008031360704700BF000806504D
:103F5800034B5B68184214BF01200020704700BF64
:103F680000080650024B6FEA00105860704700BF07
:103F780000080650FFF7ECBF024BC043C0B25860C0
:103F8800704700BF0008065000217F22FF2380E809
:103F98000E007047044B10B1FF225A627047CA21C5
:103FA800532259625A6270470028004082B00023A9
:103FB8000E490193CB685B0614D44FF0FF33CB60F6
:103FC80000E04AB9CA68019B01330193019BB3F52C
:103FD800803F02F04002F4D1044BD868C0F380104F
:103FE80002B07047012002B0704700BF00280040AF
:103FF80038B5104CCA225323626263620546FFF744
:10400800D5FF98B1A36823F04003A360A3682A688A
:104018001343A360AB68236123696A6843EA0243D8
:104028002361E36823F08003E3600120014BFF2252
:104038005A6238BD00280040024AD36823F0800342
:10404800D3607047002800400F4982B053230020F6
:10405800CA2201904A624B62CB6823F0A003CB606E
:1040680000E04AB9CA68019B01330193019BB3F58B
:10407800003F02F02002F4D1034BD868FF22C0F3BE
:1040880040105A6202B070470028004030B51E4CFC
:1040980083B00025CA225323019562626362FFF749
:1040A80085FFB8B142F2011325606360A36803F08D
:1040B8000703A36000E04AB9E268019B013301935A
:1040C800019BB3F5803F02F00402F4D10E4BDA688D
:1040D800520705D400200C4BFF225A6203B030BDB2
:1040E80000220A499C689A604FF6FF70586119616E
:1040F8009A61DA611A62DA601A64FFF7A5FF00387C
:1041080018BF0120E7E700BF00280040FF007F003C
:1041180038B50E4CCA225323626263620546FFF724
:1041280045FF50B1A36865B923F01003A360074A9F
:10413800D36823F08003D3600120044BFF225A6226
:1041480038BD43F01003A360F1E700BF002800402A
:104158000A4B5322CA2159625A629A6830B142F016
:1041680020029A60054BFF225A62704702F0DF0274
:104178009A60024BFF225A62704700BF0028004035
:1041880038B5364B002836D19D6815F040054ED11C
:10419800CD700B78092B88BF002208D90A3BDBB207
:1041A8000132092BD2B2F9D843EA0213DBB24A78BA
:1041B800092A4FEA034309D900240A3AD2B2013442
:1041C800092AE4B2F9D842EA0412D2B28978092954
:1041D8004FEA02220AD90020A1F10A04E1B2013013
:1041E8000929C0B2F8D841EA0011C9B243EA050466
:1041F80014430C430CE09B6813F0400314D1CB70BC
:104208004C7808788A78240244EA004414431C4312
:10421800124DCA2253236A626B62FFF7C7FE48B980
:104228000E4BFF225A6238BDCC782304E8E7CC78DD
:104238002504AEE704F07F3424F0FE442C60EB68DC
:1042480023F08003EB60FFF7FFFE044B00384FF0CC
:10425800FF0218BF01205A6238BD00BF0028004085
:104268000023C3700370437083707047154B1B683D
:1042780070B4C3F30645C3F30544C3F3062205F03F
:10428800400603F07F03CE700C704A708B70B8B98B
:10429800100900EB80062409180904EB840405F0D2
:1042A8000F0502F00F0200EB800003F00F0305EB8F
:1042B800440402EB460203EB40030C704A708B7017
:1042C80070BC704700280040014B986A5B687047D3
:1042D8000028004038B5002835D14A78D30648D49C
:1042E800CB78092B09D900200A3BDBB20130092B16
:1042F800C0B2F9D843EA0013DBB2092A4FEA0343F4
:1043080009D900240A3AD2B20134092AE4B2F9D808
:1043180042EA0412D2B2887809284FEA02220BD95D
:104328000025A0F10A04E0B2092805F10104E5B26C
:10433800F7D840EA0514E0B20C7843EA443343EA7C
:104348000204044309E04C78C8788A780B78240280
:1043580044EA0044144344EA4334144DCA22532324
:104368006A626B62FFF722FE68B9104BFF225A623D
:1043780038BDCB7822F010020A32D2B2092B4A702B
:10438800B1D81B04BDE724F07F4424F0C0046C605E
:10439800EB6823F08003EB60FFF756FE034B003811
:1043A8004FF0FF0218BF01205A6238BD00280040B4
:1043B80001230022C270037083704370704700BFEE
:1043C800154B5B6870B403F03F02C3F34236C3F386
:1043D8000744C3F304250E70CC704D708A70C3F384
:1043E8000723B8B92D09A80026090544100903F0C8
:1043F8000F0306EB860604F00F0400EB800002F0C2
:104408000F0203EB450304EB460402EB40024B703A
:10441800CC708A7070BC704700280040F0B43A4BEA
:10442800002859D19F6817F0400752D1D7701378E8
:10443800092B88BF002008D90A3BDBB20130092BC1
:10444800C0B2F9D843EA0013DBB2507809284FEA22
:10445800034309D900240A38C0B201340928E4B258
:10446800F9D840EA0410C0B29578092D4FEA002027
:1044780009D900260A3DEDB20136092DF6B2F9D860
:1044880045EA0615EDB2147B092C09D900260A3C29
:10449800E4B20136092CF6B2F9D844EA0614E4B2BB
:1044A800D2E90126324317433B431843054345EA03
:1044B8000464154B5322B1F5807F4FF0CA0058624F
:1044C8005A620CBFDC611C620F4BFF22F0BC5A62BF
:1044D8007047D7783F04AAE79D6815F0400510D1CA
:1044E800D570D2E901039478167803431C435078B9
:1044F800137B44EA064444EA002444EA03642C4358
:10450800D7E7D4782504ECE70028004000230122EF
:10451800C0E9003302738360704700BF244BB1F5D4
:10452800807F0CBFDB691B6AC3F307412DE9F041AB
:1045380003F0804C03F08037C3F3054EC3F306261F
:1045480003F07F05C3F3056401F04008C2E9017C6C
:1045580082F80380C3F3072CDFB282F800E05670BC
:10456800957014731B0E00BB4FEA1E1E36092D09E9
:1045780024090EEB8E0E06EB860605EB850504EB8B
:10458800840401F00F010CF00F0C07F00F0703F083
:104598000F0301EB4E010CEB460607EB450503EB59
:1045A80044041170567095701473BDE8F08100BF13
:1045B8000028004030B4154B82B053220025CA248D
:1045C80001955C625A629A6841B110439860012073
:1045D8000E4BFF225A6202B030BC704722EA00023A
:1045E8009A60000A194600E04AB9CA68019B01337B
:1045F8000193019BB3F5803F02EA0002F4D1034B1B
:10460800DB68184214BF01200020E1E700280040C1
:1046180030B4084B0A43CA255324B0F5807F5D6245
:104628005C620CBF5A649A64024BFF2230BC5A6227
:10463800704700BF00280040044BB0F5807F0CBFD6
:10464800586C986CC0F30E00704700BF00280040FB
:10465800074B5322CA2159625A629A6822F007020C
:104668009A609A681043FF2298605A62704700BFA8
:1046780000280040054B10B45321CA24FF225C6275
:1046880059625DF8044B58615A627047002800402F
:10469800014B586980B270470028004010B4154B90
:1046A80083B053220024CA21019459625A629A683D
:1046B80050B142F480629A6001200E4BFF225A6288
:1046C80003B05DF8044B704722F480629A60194683
:1046D80000E04AB9CA68019B01330193019BB3F515
:1046E800803F02F00402F4D1024BD868C0F3800086
:1046F800E3E700BF00280040094B10B45322CA2446
:104708005C625A629A685DF8044B22F480229A60CF
:104718009A6811430843FF2298605A62704700BFA5
:1047280000280040024B986800F48020704700BFC2
:1047380000280040094B10B45322CA245C625A6214
:104748009A685DF8044B22F4E0029A609A68114373
:104758000843FF2298605A62704700BF0028004053
:1047680070B50A4CCA2253236262636205460E463C
:10477800FFF71CFC30B13543A561E36823F08003E3
:10478800E3600120014BFF225A6270BD00280040FF
:1047980038B50E4CCA225323626263620546FFF79E
:1047A80005FC50B1A36865B923F08003A360074AEC
:1047B800D36823F08003D3600120044BFF225A62A0
:1047C80038BD43F08003A360F1E700BF0028004034
:1047D8000A4B5322CA2159625A629A6830B142F48C
:1047E80000029A60054BFF225A62704722F40002C9
:1047F8009A60024BFF225A62704700BF00280040AF
:10480800074B5322CA2159625A629A6822F400223D
:104818009A609A681043FF2298605A62704700BFF6
:104828000028004030B4114DCA2453236C626B62D7
:10483800EB68DC030AD5EB68DB0307D54FF40033DC
:1048480001E0013B02D0EC68E403FAD4074BDC68D2
:10485800E40308D40A430243DA630120034BFF222E
:1048680030BC5A6270470020F8E700BF00280040BB
:104878000A4B9B6823F4006323F0080310B4034336
:1048880009B143F40063054ACA245320FF21546246
:1048980050625DF8044B93605162704700280040F5
:1048A8002DE9F043294C236B646BC3F3064808F0E9
:1048B8004007CF70C3F30545C3F3062EC4F304269F
:1048C80004F03F0CC4F3423703F07F034FF00009B4
:1048D8000D7081F801E08B70C4F3072482F803900F
:1048E800567082F802C0177068BB36094FEA86090D
:1048F8004E442D0904F00F0408F00F004FEA131975
:104908004FEA1E1804EB460405EB85054FEA1C1612
:1049180000EB450508EB88080EF00F0E09EB890936
:1049280003F00F0306EB86060CF00F000EEB480EA3
:1049380003EB490300EB46000D7081F801E08B7032
:10494800547017709070BDE8F08300BF00280040D5
:10495800014B986B704700BF00280040054A136C54
:1049680019B923EA40001064704743EA4000106414
:10497800704700BF00280040044A136C11B1184367
:104988001064704723EA0000106470470028004054
:10499800044B1A6C22F4C0521A641A6C104318643F
:1049A800704700BF00280040044B1A6C22F4E062F4
:1049B8001A641A6C10431864704700BF002800403E
:1049C800044B1A6C22F4C0421A641A6C104318641F
:1049D800704700BF00280040054A136C18B143F027
:1049E80080031364704723F080031364704700BF8B
:1049F80000280040054A136C18B123F400431364DF
:104A0800704743F400431364704700BF0028004018
:104A180082B0064B002201920193019B03EB8000B8
:104A28000190019B196002B0704700BF50280040F8
:104A380082B0064B002201920193019B03EB800098
:104A48000190019B186802B0704700BF50280040D1
:104A5800044B1A6C22F480321A641A6C10431864DE
:104A6800704700BF00280040044B1A6C22F4003243
:104A78001A641A6C10431864704700BF002800407D
:104A8800044B1A6C22F480221A641A6C10431864BE
:104A9800704700BF0028004010B5184CCA225323A5
:104AA80062626362E3681A070AD5E3681B0707D5E1
:104AB8004FF4805301E0013B02D0E2681207FAD4B8
:104AC8000E4AD36813F0080307D19468E40609D5A1
:104AD80018460A4BFF225A6210BD084BFF220020DD
:104AE8005A6210BD0143D162FFF7AEFA034B00389A
:104AF8004FF0FF0218BF01205A6210BD0028004085
:104B0800114B10B45322CA245C625A6279B1996875
:104B180020F004020A439A601A6C00F00400104363
:104B28001864094B5DF8044BFF225A6270479A6873
:104B380020F0040122EA01029A601A6C00F00400D5
:104B480022EA00001864ECE700280040044BDB6808
:104B5800184043F67773184214BF012000207047AD
:104B680000280040054AD36880B240F0800003F076
:104B7800800363EA0003D360704700BF0028004049
:104B880009490B6C8A68C96803EAD03303F0040347
:104B98000240134306D001EA101080B2003818BF53
:104BA800012070471846704700280040054AD3681E
:104BB800C0F30F1040F0800003F0800363EA0003A5
:104BC800D36070470028004008B501214FF4006009
:104BD800FFF70AF9BDE8084000214FF40060FFF72D
:104BE80003B900BF0A4970B44A68C6680568D0E9C5
:104BF800014322F4FD42234322F07F021343046958
:104C0800027D33432B432343134370BC4B607047EF
:104C1800002C01400023C0E90033C0E902330375CA
:104C280003617047014B1860704700BFA0802542A0
:104C3800014B1860704700BF002C0140024B1868F8
:104C480000F00300704700BF002C014009490368C9
:104C580030B48B60D0E90135CA68D0E9034022F44A
:104C6800FF622B4322F0070213432343034330BC64
:104C7800CB607047002C01400023C0E90033C0E935
:104C880002330361704700BF014B1869C0B2704717
:104C9800002C0140044B82B003440022019201938E
:104CA800019B186802B07047142C0140094A036838
:104CB80030B4536243689362D0E90235D16AD0E9CF
:104CC80004402B4321F0F7010B432343034330BC3B
:104CD800D3627047002C014000234FF0FF32C0E937
:104CE8000023C0E90233C0E904337047014B186B55
:104CF800704700BF002C0140014BD3F8800070477B
:104D0800002C0140014BC3F880007047002C014083
:104D1800014B986C704700BF002C0140014B186094
:104D2800704700BFA0852542014B1860704700BF3F
:104D3800A4852542014B1860704700BFA88525420D
:104D4800014B1860704700BFAC852542014B1860C5
:104D5800704700BFAC812542014B1860704700BF07
:104D6800B0812542024BC04300F001001860704733
:104D7800B4812542014B1860704700BFB8812542B5
:104D8800014B1860704700BF8C852542044AD36BDD
:104D980011B11843D063704723EA0000D06370470D
:104DA800002C0140034B5B6B034214BF0120002021
:104DB800704700BF002C0140014B9863704700BF4B
:104DC800002C0140FFF7EEBF014B9863704700BF0E
:104DD800002C014008B5174B984206D0164B984254
:104DE8000FD0164B984218D008BD01214FF48050BF
:104DF800FEF7FAFFBDE8084000214FF48050FEF7A7
:104E0800F3BF01214FF48040FEF7E2FFBDE8084000
:104E180000214FF48040FEF7DBBF01214FF4004032
:104E2800FEF7D6FFBDE8084000214FF40040FEF72A
:104E3800CFBF00BF0030014000380040003C0040B8
:104E48000B888A8830B44C88CD88234313430C8957
:104E58004A892B4323438D89CC89098A13430288C5
:104E68002B43234302F4415213439BB20380838BA9
:104E780023F400631B041B0C838330BC018270473E
:104E8800838B23F47B6323F00F031B0402221B0C88
:104E98002DE9F04183838F680284848B9742A4B202
:104EA8004FD02A4B8D889A68002D14BF4FF0020E00
:104EB8004FF0010E12023FD4244EDFF898C0D6F806
:104EC8008420D6F88430D6F80480CE88C2F38812BD
:104ED800B6F5007FC3F3027308F03F08BCFBF8FC8B
:104EE80002FB0CF2B2FBF3F20EBF120A4FEA4E1E9F
:104EF800B2FBFEF202EB82025300154AB3FBF7F352
:104F080005339BB2A2FB03231F09BA1EC3F3C003D8
:104F1800FD2A94BF47EA032302230A884F88898918
:104F28003A4315430D432C43A4B2334344F400647D
:104F380003848483BDE8F0819A6822F400029A60B1
:104F4800BAE78D88CE883B46E7E700BF00380240C5
:104F5800CDCCCCCC00127A00002307220282038039
:104F680043808380C380038143818381C3817047E9
:104F780000230222C0E9003382608381704700BFAA
:104F8800038821B19BB243F040030380704723F0AC
:104F980040031B041B0C0380704700BF838B21B1A7
:104FA8009BB243F480638383704723F480631B04BC
:104FB8001B0C8383704700BF038823F400631B0422
:104FC8001B0C038003889BB219430180704700BF04
:104FD800B1F5804F038805D023F480431B041B0CD4
:104FE800038070479BB243F480430380704700BF3F
:104FF8004FF6FF639942038804D09BB243F4807351
:105008000380704723F480731B041B0C03807047D4
:10501800838821B19BB243F004038380704723F057
:1050280004031B041B0C8380704700BF838821B1D5
:105038009BB243F010038380704723F010031B04D6
:105048001B0C8380704700BF828BF0B40C884D889E
:105058008F888E8922F47B6224F4007122F00F027B
:1050680089B2120400294FEA12424FF002018283EA
:1050780008BF4FF48073018445EA070218BF002374
:10508800818B134333430B439BB243F40063F0BC5F
:1050980083837047808980B2704700BF81817047E1
:1050A800038821B19BB243F400530380704723F473
:1050B80000531B041B0C0380704700BF03889BB27E
:1050C80043F4805303807047012914BF008B808A02
:1050D80080B27047008A80B2704700BF83889BB255
:1050E80012B119438180704723EA0101818070471A
:1050F800090901238B409BB222B1828892B21343E3
:1051080083807047828892B222EA030383807047C3
:105118000389194214BF012000207047C94389B28E
:105128000181704710B48488008901F00F030122BF
:1051380080B202FA03F3184007D00909A4B202FAB0
:1051480001F10C4214BF104600205DF8044B704773
:1051580001F00F0101238B40DB439BB203817047B1
:1051680008B501214FF48040FEF73EFEBDE8084037
:1051780000214FF48040FEF737BE00BF014B186096
:10518800704700BF0038014001F0FC0303F1804381
:1051980003F59C3301F0030110B49A6889000F24C9
:1051A8008C4022EA04029A609A685DF8044B8840B1
:1051B80002439A60704700BF014B1860704700BFF8
:1051C800DC002742014B1860704700BF00042742EB
:1051D800024B186AC0F30020704700BF0038014036
:1051E80008B5604B984233D0B0F1804F3AD05E4B4F
:1051F800984241D05D4B984220D05D4B984245D0B3
:105208005C4B98424CD05C4B984253D05B4B9842D5
:1052180066D05B4B984257D05A4B98426AD05A4B4B
:10522800984273D0594B98427CD0594B984200F021
:105238008380584B984200F0898008BD01210420E2
:10524800FEF7C6FDBDE8084000210420FEF7C0BDFA
:1052580001210846FEF7C8FDBDE8084000210120ED
:10526800FEF7C2BD01210846FEF7B2FDBDE80840C1
:1052780000210120FEF7ACBD01210220FEF7A8FDA8
:10528800BDE8084000210220FEF7A2BD0121082048
:10529800FEF79EFDBDE8084000210820FEF798BDF6
:1052A80001211020FEF794FDBDE8084000211020E0
:1052B800FEF78EBD01212020FEF78AFDBDE80840DB
:1052C80000212020FEF784BD01214FF48030FEF735
:1052D8008BFDBDE8084000214FF48030FEF784BD07
:1052E80001210220FEF780FDBDE8084000210220D0
:1052F800FEF77ABD01214FF40030FEF775FDBDE8D9
:10530800084000214FF40030FEF76EBD01214FF434
:105318008020FEF769FDBDE8084000214FF4802099
:10532800FEF762BD01214020FEF752FDBDE80840AE
:1053380000214020FEF74CBD01218020FEF748FDEA
:10534800BDE8084000218020FEF742BD01214FF44E
:105358008070FEF73DFDBDE8084000214FF48070E5
:10536800FEF736BD00000140000400400008004080
:10537800000C0040001000400014004000040140F0
:10538800004001400044014000480140001800402E
:10539800001C004000200040214A038890429BB234
:1053A80012D002F5806290420ED0B0F1804F0BD03F
:1053B800A2F58032904207D002F58062904203D075
:1053C80002F58062904203D14A8823F070031343A8
:1053D800144A904218D002F58062904214D030B43A
:1053E80023F440730C894D6802F56C429BB2234349
:1053F80090420C880380C56204850DD18B7A0386A0
:10540800012330BC8382704703800B884A68C262DC
:105418000385012383827047034B9842EED0EFE760
:1054280000000140001000400004014000234FF03C
:10543800FF32C0E90032038183727047018582829E
:10544800704700BF038823F070031B041B0C19432B
:105458000180704741627047C1627047406A704777
:10546800008D80B2704700BF038821B19BB243F022
:1054780002030380704723F002031B041B0C038004
:10548800704700BF038821B19BB243F00403038037
:10549800704723F004031B041B0C0380704700BFF4
:1054A800038821B19BB243F080030380704723F047
:1054B80080031B041B0C0380704700BF038823F084
:1054C80008031B041B0C038003889BB2194301804B
:1054D800704700BF038823F440731B041B0C038030
:1054E80003889BB219430180704700BF038821B12C
:1054F8009BB243F001030380704723F001031B04B0
:105508001B0C0380704700BF038C23F001031B04AE
:105518001B0C0384038CF0B423F0020384888D8968
:105528004F88028B144E1B043D4322F073021B0C60
:105538002B4312040D88120CB0429BB2A4B242EA6B
:10554800050209D00D4DA84206D0896884800283DF
:10555800F0BC416303847047CE890D8A4F8A23F0DB
:105568000803334324F440748E883D4323F0040336
:105578002C433343A4B2E8E7000001400004014093
:10558800038C23F010031B041B0C0384038CF0B45E
:1055980023F0200384888E89028B4F88184D1B04C2
:1055A8003E4322F4E6421B0C43EA061312040E881B
:1055B800120C42EA0622A8429BB2A4B292B20AD0C6
:1055C80005F58065A84206D0896884800283F0BC0E
:1055D800816303847047CD890E8A4F8A23F0800344
:1055E80043EA05134FF6BF751D408B8824F44064C9
:1055F8003E4345EA031344EA86049BB2A4B2E3E7B8
:1056080000000140038C23F480731B041B0C0384EB
:10561800038CF0B48588828B4F888C89184E23F4CC
:1056280000731B0422F073023C431B0C0F88120406
:1056380043EA0423120CB0429BB2ADB242EA07021D
:1056480009D0104CA04206D0896885808283F0BCBE
:10565800C16303847047CC890E8A4F8A23F40063A0
:1056680043EA04234FF6FF341C408B8825F4405549
:105678003E4344EA032345EA06149BB2A5B2E3E796
:105688000000014000040140038C23F480531B04F4
:105698001B0C0384038CF0B423F4005384888E8994
:1056A800828B4F88114D1B043E4322F4E6421B0CAB
:1056B80043EA063312040E88120C42EA0622A84274
:1056C8009BB2A4B292B20AD005F58065A84206D072
:1056D800896884808283F0BC0164038470470D8AE2
:1056E80024F4804444EA8514A4B2F1E700000140A0
:1056F8000023C0E90233036083800361704700BF61
:10570800038C10B401248C409BB223EA040321F0DB
:105718000804038418307CB10439C1F34E0148F6FB
:10572800FF740B5823400B5012020B585DF8044BC2
:1057380092B21A430A50704749084FF68F740B58B3
:1057480023400B500B585DF8044B1A430A5070471E
:105758004163704781637047C16370470164704754
:10576800038B23F070031B041B0C19430183704740
:10577800038B23F4E0431B041B0C43EA012189B289
:1057880001837047838B23F070031B041B0C1943A0
:1057980081837047838B23F4E0431B041B0C43EA8B
:1057A800012189B281837047038B23F008031B040E
:1057B8001B0C194301837047038B23F400631B04FC
:1057C8001B0C43EA012189B201837047838B23F0C4
:1057D80008031B041B0C194381837047838B23F434
:1057E80000631B041B0C43EA012189B281837047C3
:1057F800038B23F004031B041B0C1943018370471C
:10580800038B23F480631B041B0C43EA012189B238
:1058180001837047838B23F004031B041B0C19437B
:1058280081837047838B23F480631B041B0C43EA3A
:10583800012189B281837047038B23F080031B0405
:105848001B0C194301837047038BC3F30E0343EA10
:10585800012189B201837047838B23F080031B04E5
:105868001B0C194381837047838BC3F30E0343EAF0
:10587800012189B281837047038C23F002031B0442
:105888001B0C194301847047038C23F008031B0485
:105898001B0C194301847047038C23F020031B045D
:1058A8001B0C43EA011189B201847047038C23F071
:1058B80080031B041B0C43EA011189B20184704761
:1058C800038C23F400731B041B0C43EA012189B2E7
:1058D80001847047038C23F400631B041B0C43EA08
:1058E800012189B201847047038C23F400531B04FF
:1058F8001B0C43EA013189B201847047038C10B450
:1059080001248C409BB223EA04030384038C5DF8D2
:10591800044B8A401A4392B202847047038C10B435
:1059280004248C409BB223EA04030384038C5DF8AF
:10593800044B8A401A4392B2028470470B88F0B431
:1059480033BB028C4C880E898B88C98822F00102EF
:105958001204120C0284058B028CADB225F0F305FB
:1059680092B22B4322F00A0243EA061322439BB267
:1059780042F0010203830284038B23F00C031B040F
:105988001B0C0383038B9BB21943F0BC0183704744
:10599800042B048C2CD0082B4E888A880D89C98842
:1059A80051D024F480542404240C0484838B078C61
:1059B8002C0344EA022440F6FF421A4045F6FF73DE
:1059C8003B4043EA063322439BB292B243F48053EE
:1059D80082830384828B22F440621204120C828335
:1059E800838B9BB243EA01239BB2F0BC838370474D
:1059F80024F010042404240C4D880F898A88C9884F
:105A08000484068B038C12029BB242EA073423F00B
:105A1800A00340F6FF42324043EA051322439BB2FB
:105A280092B243F0100302830384028B22F4406293
:105A38001204120C0283038B9BB243EA01239BB22C
:105A4800F0BC0383704724F480742404240C048479
:105A5800848B038CA4B29BB224F0F30423F4206358
:105A6800224343EA062342EA05129BB243F48073B9
:105A780092B282830384838B23F00C031B041B0CD8
:105A88008383838B9BB21943F0BC8183704700BF2B
:105A980000230122828003804380C38003817047F2
:105AA800F0B54E88B1F804C00B88002E0CBF022454
:105AB8000024BCF1010F0CBF02250125002B49D1A0
:105AC800038C0F89C98823F001031B041B0C038472
